{
  "contractName": "HelloWorld",
  "abi": [
    {
      "constant": true,
      "inputs": [
        {
          "name": "",
          "type": "address"
        }
      ],
      "name": "students",
      "outputs": [
        {
          "name": "name",
          "type": "string"
        },
        {
          "name": "PorF",
          "type": "string"
        },
        {
          "name": "scores",
          "type": "uint256"
        },
        {
          "name": "addr",
          "type": "address"
        }
      ],
      "payable": false,
      "stateMutability": "view",
      "type": "function"
    },
    {
      "constant": false,
      "inputs": [],
      "name": "sayHello",
      "outputs": [
        {
          "name": "",
          "type": "string"
        }
      ],
      "payable": false,
      "stateMutability": "nonpayable",
      "type": "function"
    },
    {
      "constant": false,
      "inputs": [
        {
          "name": "_name",
          "type": "string"
        },
        {
          "name": "_scores",
          "type": "uint256"
        }
      ],
      "name": "enter_scores",
      "outputs": [
        {
          "name": "",
          "type": "string"
        },
        {
          "name": "",
          "type": "uint256"
        },
        {
          "name": "",
          "type": "string"
        },
        {
          "name": "",
          "type": "address"
        }
      ],
      "payable": false,
      "stateMutability": "nonpayable",
      "type": "function"
    },
    {
      "constant": false,
      "inputs": [
        {
          "name": "_addr",
          "type": "address"
        }
      ],
      "name": "lookup_scores",
      "outputs": [
        {
          "name": "",
          "type": "string"
        },
        {
          "name": "",
          "type": "uint256"
        },
        {
          "name": "",
          "type": "string"
        }
      ],
      "payable": false,
      "stateMutability": "nonpayable",
      "type": "function"
    },
    {
      "constant": false,
      "inputs": [],
      "name": "delete_student",
      "outputs": [
        {
          "name": "",
          "type": "string"
        }
      ],
      "payable": false,
      "stateMutability": "nonpayable",
      "type": "function"
    }
  ],
  "bytecode": "0x608060405234801561001057600080fd5b50610cca806100206000396000f30060806040526004361061006d576000357c0100000000000000000000000000000000000000000000000000000000900463ffffffff1680632177f16314610072578063406c2748146102045780637aaf217014610294578063a6c807a9146103c3578063ef5fb05b14610525575b600080fd5b34801561007e57600080fd5b506100e3600480360381019080803590602001908201803590602001908080601f0160208091040260200160405190810160405280939291908181526020018383808284378201915050505050509192919290803590602001909291905050506105b5565b6040518080602001858152602001806020018473ffffffffffffffffffffffffffffffffffffffff1673ffffffffffffffffffffffffffffffffffffffff168152602001838103835287818151815260200191508051906020019080838360005b8381101561015f578082015181840152602081019050610144565b50505050905090810190601f16801561018c5780820380516001836020036101000a031916815260200191505b50838103825285818151815260200191508051906020019080838360005b838110156101c55780820151818401526020810190506101aa565b50505050905090810190601f1680156101f25780820380516001836020036101000a031916815260200191505b50965050505050505060405180910390f35b34801561021057600080fd5b5061021961078c565b6040518080602001828103825283818151815260200191508051906020019080838360005b8381101561025957808201518184015260208101905061023e565b50505050905090810190601f1680156102865780820380516001836020036101000a031916815260200191505b509250505060405180910390f35b3480156102a057600080fd5b506102d5600480360381019080803573ffffffffffffffffffffffffffffffffffffffff169060200190929190505050610859565b604051808060200184815260200180602001838103835286818151815260200191508051906020019080838360005b8381101561031f578082015181840152602081019050610304565b50505050905090810190601f16801561034c5780820380516001836020036101000a031916815260200191505b50838103825284818151815260200191508051906020019080838360005b8381101561038557808201518184015260208101905061036a565b50505050905090810190601f1680156103b25780820380516001836020036101000a031916815260200191505b509550505050505060405180910390f35b3480156103cf57600080fd5b50610404600480360381019080803573ffffffffffffffffffffffffffffffffffffffff1690602001909291905050506109f4565b6040518080602001806020018581526020018473ffffffffffffffffffffffffffffffffffffffff1673ffffffffffffffffffffffffffffffffffffffff168152602001838103835287818151815260200191508051906020019080838360005b83811015610480578082015181840152602081019050610465565b50505050905090810190601f1680156104ad5780820380516001836020036101000a031916815260200191505b50838103825286818151815260200191508051906020019080838360005b838110156104e65780820151818401526020810190506104cb565b50505050905090810190601f1680156105135780820380516001836020036101000a031916815260200191505b50965050505050505060405180910390f35b34801561053157600080fd5b5061053a610b74565b6040518080602001828103825283818151815260200191508051906020019080838360005b8381101561057a57808201518184015260208101905061055f565b50505050905090810190601f1680156105a75780820380516001836020036101000a031916815260200191505b509250505060405180910390f35b60606000606060006060603c861015610603576040805190810160405280600981526020017fe4b88de58f8ae6a0bc000000000000000000000000000000000000000000000081525061063a565b6040805190810160405280600681526020017fe58f8ae6a0bc00000000000000000000000000000000000000000000000000008152505b90506080604051908101604052808881526020018281526020018781526020013373ffffffffffffffffffffffffffffffffffffffff168152506000803373ffffffffffffffffffffffffffffffffffffffff1673ffffffffffffffffffffffffffffffffffffffff16815260200190815260200160002060008201518160000190805190602001906106ce929190610bb1565b5060208201518160010190805190602001906106eb929190610bb1565b506040820151816002015560608201518160030160006101000a81548173ffffffffffffffffffffffffffffffffffffffff021916908373ffffffffffffffffffffffffffffffffffffffff1602179055509050508686336040805190810160405280600f81526020017fe5b7b2e799bbe585a5e68890e7b8be00000000000000000000000000000000008152509094509450945094505092959194509250565b60606000803373ffffffffffffffffffffffffffffffffffffffff1673ffffffffffffffffffffffffffffffffffffffff168152602001908152602001600020600080820160006107dd9190610c31565b6001820160006107ed9190610c31565b60028201600090556003820160006101000a81549073ffffffffffffffffffffffffffffffffffffffff021916905550506040805190810160405280600f81526020017fe5b7b2e6b885e999a4e68890e58a9f0000000000000000000000000000000000815250905090565b60606000606060008060008673ffffffffffffffffffffffffffffffffffffffff1673ffffffffffffffffffffffffffffffffffffffff168152602001908152602001600020905080600001816002015482600101828054600181600116156101000203166002900480601f0160208091040260200160405190810160405280929190818152602001828054600181600116156101000203166002900480156109435780601f1061091857610100808354040283529160200191610943565b820191906000526020600020905b81548152906001019060200180831161092657829003601f168201915b50505050509250808054600181600116156101000203166002900480601f0160208091040260200160405190810160405280929190818152602001828054600181600116156101000203166002900480156109df5780601f106109b4576101008083540402835291602001916109df565b820191906000526020600020905b8154815290600101906020018083116109c257829003601f168201915b50505050509050935093509350509193909250565b6000602052806000526040600020600091509050806000018054600181600116156101000203166002900480601f016020809104026020016040519081016040528092919081815260200182805460018160011615610100020316600290048015610aa05780601f10610a7557610100808354040283529160200191610aa0565b820191906000526020600020905b815481529060010190602001808311610a8357829003601f168201915b505050505090806001018054600181600116156101000203166002900480601f016020809104026020016040519081016040528092919081815260200182805460018160011615610100020316600290048015610b3e5780601f10610b1357610100808354040283529160200191610b3e565b820191906000526020600020905b815481529060010190602001808311610b2157829003601f168201915b5050505050908060020154908060030160009054906101000a900473ffffffffffffffffffffffffffffffffffffffff16905084565b60606040805190810160405280600b81526020017f48656c6c6f20576f726c64000000000000000000000000000000000000000000815250905090565b828054600181600116156101000203166002900490600052602060002090601f016020900481019282601f10610bf257805160ff1916838001178555610c20565b82800160010185558215610c20579182015b82811115610c1f578251825591602001919060010190610c04565b5b509050610c2d9190610c79565b5090565b50805460018160011615610100020316600290046000825580601f10610c575750610c76565b601f016020900490600052602060002090810190610c759190610c79565b5b50565b610c9b91905b80821115610c97576000816000905550600101610c7f565b5090565b905600a165627a7a7230582030cc45a2e6055fd546469dc51fc3a18d1e63ec129e95f211411f5fb79ceb761f0029",
  "source": "pragma solidity^0.4.25;\ncontract HelloWorld{\n    //第一題\n    function sayHello() public returns (string) {\n        return (\"Hello World\");\n    }\n    \n    //第二題\n    struct Student{\n        string name;\n        string PorF;\n        uint scores; \n        address addr;\n    }\n    mapping (address => Student) public students;\n    \n    function enter_scores(string _name,uint _scores) public returns (string,uint,string,address) {\n        string memory tmp=(_scores >= 60)?\"及格\":\"不及格\";\n            \n        students[msg.sender] =  Student({\n            name: _name,\n            scores: _scores,\n            addr: msg.sender,\n            PorF: tmp\n        });\n        return (_name,_scores,\"已登入成績\",msg.sender);\n    }\n    \n    function lookup_scores(address _addr) public returns (string,uint,string) {\n        Student s = students[_addr];\n        return (s.name,s.scores,s.PorF);\n    }\n    \n    function delete_student() public returns (string) {\n        delete students[msg.sender];\n        return (\"已清除成功\");\n    }\n}\n\n",
  "sourcePath": "/Users/lion/eth_test/hello/contracts/HelloWorld.sol",
  "compiler": {
    "name": "solc",
    "version": "0.4.25+commit.59dbf8f1.Emscripten.clang"
  },
  "schemaVersion": "2.0.2",
  "updatedAt": "2019-01-25T12:39:19.286Z"
}